:020000040800F2
:1000000000500020514300084D4300084B430008B6
:100010004B4300084B4300084B430008000000001E
:100020000000000000000000000000004132000855
:100030004D43000800000000C134000809350008E5
:100040004B4300084B4300084B4300084B43000858
:100050004B4300084B4300084B4300084B43000848
:100060004B4300084B4300084B4300084B43000838
:100070004B4300084B4300084B4300084B43000828
:100080004B4300084B4300084B4300084B43000818
:100090004B4300084B4300084B4300084B43000808
:1000A0004B4300084B4300084B4300084B430008F8
:1000B0004B4300084B4300084B4300084B430008E8
:1000C0004B4300084B4300084B4300084B430008D8
:1000D0004B430008A50700084B4300084B430008AA
:1000E000191500084B4300084B4300084B43000818
:1000F0004B4300084B4300084B4300084B430008A8
:100100004B4300084B4300084B4300084B43000897
:100110004B4300084B4300084B4300084B43000887
:100120004B4300084B4300084B4300084B43000877
:100130004B4300084B4300084B4300084B43000867
:100140004B4300084B4300084B4300084B43000857
:1001500080B500AF084803F023FF00F00FF801F06E
:1001600035F800F057FF00F0B1FA00F00DFF00F095
:10017000CBF900BFFDE700BF3857000880B500AFDE
:100180004FF4407003F078FF00BF80BD80B590B0A1
:1001900000AF03463960FB71F97907F10C033A6847
:1001A000184600F0D5FB0346002B08D0064B186814
:1001B00007F10C0100234FF0FF3201F05FFB00BF9D
:1001C0004037BD4680BD00BF6800002080B584B0C8
:1001D00000AF78600023FB730A4B1B6807F10F0127
:1001E0004FF0FF32184601F001FD0346012BF3D119
:1001F000054B186807F10F0100234FF0FF3201F0A3
:100200003DFBE9E7600000206400002080B5ACB051
:1002100000AF7860002387F8AE3007F1700318460E
:1002200000F06AFD2E4B1B6807F1AE014FF0FF3264
:10023000184601F0DBFC0346012B4ED1294B1B680D
:100240000133284A136097F8AE1007F13C0207F11A
:100250007003184600F05CFD034687F8AF3097F84E
:10026000AF30012B2BD1204B1B6801331E4A13608A
:1002700097F83C30042B0DD107F13C0301331B49A7
:10028000184604F045FA0346002B03D1184B01220F
:100290001A70C7E707F1080207F13C031146184638
:1002A00000F078FE0346002BBCD0124B186807F113
:1002B000080100234FF0FF3201F0E0FAB2E797F8AF
:1002C000AF30022BAED10C4B1B6801330A4A1360CE
:1002D0000A490520FFF75AFFA4E700BFA2E700BFC5
:1002E000640000207000002074000020D855000831
:1002F0007D0000206800002078000020E055000804
:1003000080B584B000AF78600023FB7200F07AFF04
:1003100000F0B4FF07F10B03184601F0A3F8034601
:10032000002B2DD0FB7A002B19D0264B1B78DBB28B
:1003300083F00103DBB2002B22D0224B01221A7082
:10034000214B00221A7002F015FA03461F4A13606F
:1003500000F072FF1E490220FFF718FF10E0194B52
:100360001B78DBB2002B0BD0164B00221A70164BF9
:1003700000221A7000F046FF16490220FFF706FF20
:10038000104B1B78DBB2002B18D00F4B1B78DBB265
:1003900083F00103DBB2002B10D002F0EBF9F86020
:1003A0000A4B1B68FA68D31AB3F5FA7F06D3074ADB
:1003B000FB68136006490220FFF7E8FE0A2002F0FE
:1003C00005F8A5E77C0000207D00002080000020CB
:1003D000E8550008F055000880B594B000AF78608B
:1003E00002F0C8F90346FB6302F0C4F9F86402F0B6
:1003F000C1F9B86400237B6402F0BCF938643A6C3C
:10040000FB6CD31AB3F5FA7F16D33B6CFB6407F190
:100410000803796C184600F0D7FD0346002B08D07E
:10042000164B186807F1080100234FF0FF3201F066
:1004300025FA7B6C01337B643A6CBB6CD31AB3F541
:100440007A7F14D33B6CBB6407F108030C4A032189
:10045000184600F07DFA0346002B08D0074B1868B9
:1004600007F1080100234FF0FF3201F007FA07F10E
:100470003C033221184601F027FFBDE76800002049
:10048000FC55000880B588B000AF7860084B1B6849
:1004900007F108014FF0FF32184601F0A7FB0346B1
:1004A000012BF3D107F10803184600F03FFFEDE7F9
:1004B0006C00002080B5A0B000AF78600023BB6066
:1004C000104B1B6807F14C014FF0FF32184601F04A
:1004D0008DFB0346012B13D107F1080307F10C0133
:1004E00007F14C00402200F07FFA0346002BE7D0D2
:1004F000BA6807F10C031146184600F031F9DFE73E
:1005000000BFDDE76800002080B588B002AF0022A0
:100510000121402001F044F90346554A13600022AE
:100520000121402001F03CF90346524A13600022A9
:100530003321082001F034F903464F4A13600022AA
:100540001821082001F02CF903464C4A1360484B4F
:100550001B68002B0BD14FF0500383F31188BFF3BE
:100560006F8FBFF34F8F7B6100BF00BFFDE7414B33
:100570001B68002B0BD14FF0500383F31188BFF39E
:100580006F8FBFF34F8F3B6100BF00BFFDE73A4B5A
:100590001B68002B0BD14FF0500383F31188BFF37E
:1005A0006F8FBFF34F8FFB6000BF00BFFDE7334B82
:1005B0001B68002B0BD14FF0500383F31188BFF35E
:1005C0006F8FBFF34F8FBB6000BF00BFFDE7284BAD
:1005D0001B68184600F06CF800F0F4FE002301934D
:1005E000032300930023A0222549264801F02CFD77
:1005F00000230193032300930023C02222492348B0
:1006000001F022FD00230193022300930023C02266
:100610001F49204801F018FD002301930223009395
:100620000023C0221C491D4801F00EFD0023019348
:10063000022300930023A02219491A4801F004FD67
:1006400000230193022300930023C0221649174878
:1006500001F0FAFC01F03AFF4FF0500383F31188E8
:10066000BFF36F8FBFF34F8F7B6000BF00BFFDE70D
:100670006000002064000020680000206C00002062
:1006800000560008CD010008085600080D020008B9
:1006900010560008010300081C560008D903000882
:1006A000285600088504000834560008B5040008E0
:1006B00080B483B000AF7860034A7B68136000BFEA
:1006C0000C37BD4680BC70478400002080B500AF69
:1006D00040F2023003F0D0FC40F20E3003F0CCFCCC
:1006E0004FF40073022203211B4803F025FB4FF453
:1006F000806302220021184803F01EFB4FF4806142
:10070000154803F048FB4FF4E131144803F0CAFDEB
:100710000821124803F0D1FD0021104803F0D6FD56
:100720000C210E4803F0DEFD00210C4803F0D4FD3F
:1007300000210A4803F0DCFD5021252003F05EFE75
:10074000252003F04FFE054803F0E8FD034803F0C1
:10075000D5FD00BF80BD00BF00080140003801404A
:1007600080B584B000AF786039607B68002B12D010
:100770000023FB600AE07A68FB6813441B78194683
:10078000074803F0C0FDFB680133FB60FA683B6873
:100790009A42F0D300E000BF1037BD4680BD00BFD5
:1007A0000038014080B582B000AF00237B6020217B
:1007B0001B4803F0C4FD034683F00103DBB2002BAA
:1007C00029D1174803F0B3FD0346DBB2FB70154B8C
:1007D0001B680133134A1360134B1B68002B0ED0A8
:1007E000114B18683A1DF91C002301F049F9034622
:1007F000012B04D00D4B1B6801330C4A13607B683E
:10080000002B09D00A4B4FF080521A60BFF34F8F74
:10081000BFF36F8F00E000BF0837BD4680BD00BF4B
:100820000038014088000020840000208C00002057
:1008300004ED00E080B483B000AF0346FB71FB79A8
:10084000052B1BD801A252F823F000BF6508000851
:10085000690800086D08000871080008750800089C
:1008600079080008084B0AE0084B08E0084B06E04E
:10087000084B04E0084B02E0084B00E0084B184628
:100880000C37BD4680BC70473C56000840560008F7
:1008900044560008485600084C56000850560008B8
:1008A0005456000880B582B000AF78607B68002B9A
:1008B00001D106233CE003221F49786803F0E2FEE1
:1008C0000346002B01D1002332E003221B49786844
:1008D00003F0D8FE0346002B01D1012328E00322B8
:1008E0001749786803F0CEFE0346002B01D102239E
:1008F0001EE003221349786803F0C4FE0346002B70
:1009000001D1032314E003220F49786803F0BAFEF3
:100910000346002B01D104230AE003220B49786827
:1009200003F0B0FE0346002B01D1052300E00623AF
:1009300018460837BD4680BD3C56000840560008A2
:1009400044560008485600084C5600085056000807
:1009500080B586B000AFF8600B467A60FB72FB682A
:10096000002B02D07B68002B01D1002319E07868AE
:1009700003F05EFD78617B69302B01D9002310E024
:10098000FB68FA7A1A707B69DAB2FB6883F8322066
:10099000FB68581C7B6901331A46796803F0C6FD71
:1009A000012318461837BD4680BD80B485B000AF1E
:1009B000786039600023FB730023BB6009E07A682C
:1009C000BB6813441A78FB7B5340FB73BB6801334D
:1009D000BB60BA683B689A42F1D3FB7B1846143778
:1009E000BD4680BC7047000080B5AAB002AFF86079
:1009F000B9607A603B60FB68002B05D0BB68002BB8
:100A000002D03B68002B01D1002368E0FB681B7813
:100A10001846FFF70FFFC7F89C0003223249D7F8AA
:100A20009C0003F02FFE0346002B01D1002356E06B
:100A3000FB68013307F154000093D7F89C302B4A30
:100A4000352103F083FFC7F89800D7F89830002BC2
:100A500003DBD7F89830342B01D900233FE0D7F8D7
:100A6000982007F1100007F1540300931346204A21
:100A7000412103F06BFFC7F89400D7F89430002BA6
:100A800003DBD7F89430402B01D9002327E0D7F8B7
:100A9000942007F1100311461846FFF786FF03461E
:100AA00087F8933097F8933007F1100200931346BC
:100AB000104A7968B86803F049FFC7F88C00D7F886
:100AC0008C30002B04DBD7F88C307A689A4201D83E
:100AD000002304E0D7F88C203B681A6001231846F5
:100AE000A037BD4680BD00BF5456000858560008C8
:100AF000605600086856000880B588B000AFF860FE
:100B00000B467A60FB72FB68002B05D07B68002BDC
:100B100002D0FB7A032B01D8002325E0FB680333C6
:100B20001B783A2B01D000231EE007F114030322A7
:100B3000F968184603F070FD0023FB7507F11403F4
:100B40001846FFF7AFFE0346FB77FB7F062B01D16C
:100B5000002309E0FB680433BB61FB7FBA691946D7
:100B60007868FFF7F5FE034618462037BD4680BD7E
:100B700080B483B000AF0346FB71FB792F2B05D9FE
:100B8000FB79392B02D8FB79303B0AE0FB79402B0B
:100B900005D9FB79462B02D8FB79373B01E04FF0B2
:100BA000FF3318460C37BD4680BC704780B582B015
:100BB00000AF78600B46FB70786800F06DF8FB784A
:100BC000402B02D17B6801221A7002231846083795
:100BD000BD4680BD80B58AB000AF78603960002323
:100BE0007B6200233B620CE07A683B6A13441B780B
:100BF0003A2B03D17A683B6A13447B623B6A013328
:100C00003B623A6A3B689A42EED37B6A002B02D180
:100C10004FF0FF333CE07B6ADA1C79683B680B4499
:100C20009A4202D04FF0FF3332E07B6A0133FB611E
:100C3000FB691B781846FFF79BFFB861FB6901331E
:100C40001B781846FFF794FF7861BB69002B02DB25
:100C50007B69002B02DA4FF0FF3319E0BB695BB20E
:100C60001B015AB27B695BB213435BB2FB747A6AB5
:100C70007B68D31AFB60F9687868FFF796FE034635
:100C8000FB72FA7AFB7C9A4214BF01230023DBB289
:100C900018462837BD4680BD80B483B000AF786069
:100CA0007B68002B23D07B6800221A707B680022AF
:100CB0005A707B6800229A707B680022DA707B6829
:100CC000002283F839207B68002283F83A207B6871
:100CD000002283F83B207B6800221A717B68002287
:100CE00083F83C207B68002283F83D2000E000BFB1
:100CF0000C37BD4680BC704780B582B000AF7860CD
:100D00007868FFF7C9FF00BF0837BD4680BD000007
:100D100080B59AB002AFF8600B467A60FB72FB6850
:100D2000002B02D07B68002B01D1022326E1FB7A45
:100D30000D2B01D1002321E1FB681B78082B00F269
:100D40001C8101A252F823F06D0D00087D0D0008F2
:100D5000A70D0008070E00082B0E0008870E0008DC
:100D6000A30E0008CF0E0008030F0008FB7A402BEB
:100D700040F00081FB6801221A70FBE0FB7A184604
:100D8000FFF7F6FE0346002B06DBFB68FA7A5A7083
:100D9000FB6802221A70F0E0FB7A1946F868FFF748
:100DA00005FF0346EAE0FB7A1846FFF7E1FE03463B
:100DB000002B21DBFB68FA7A9A70FB680022DA705C
:100DC000FB685B781846FFF7D3FEF865FB689B78F5
:100DD0001846FFF7CDFEB865FB6D5BB21B015AB23A
:100DE000BB6D5BB213435BB2DAB2FB6883F83C20A5
:100DF000FB6803221A70C0E0FB7A1946F868FFF717
:100E0000D5FE0346BAE0FB7A3A2B07D1FB680022F5
:100E100083F83D20FB6804221A70AEE0FB7A194685
:100E2000F868FFF7C3FE0346A8E0FB6893F83D307F
:100E30005A1CD1B2FA6882F83D101A46FB68134476
:100E4000FA7A1A71FB6893F83D30342B06D9FB7A95
:100E50001946F868FFF7AAFE03468FE0FB6893F88F
:100E60003D20FB6893F83C309A4240F08580FB6857
:100E700093F83D301A46FB68134400221A71FB6850
:100E800005221A7078E0FB7A3A2B03D1FB68062220
:100E90001A7072E0FB7A1946F868FFF787FE03467E
:100EA0006CE0FB7A1846FFF763FE0346002B07DB76
:100EB000FB68FA7A83F83920FB6807221A705CE035
:100EC000FB7A1946F868FFF771FE034656E0FB7A95
:100ED0001846FFF74DFE0346002B0BDBFB68FA7A42
:100EE00083F83A20FB68002283F83B20FB68082245
:100EF0001A7042E0FB7A1946F868FFF757FE03467E
:100F00003CE0FB7A0A2B2ED1FB68591CFB680433AA
:100F1000FA68393207F11400019200930B46194A1E
:100F2000412103F013FD07F11403184603F080FA82
:100F3000024607F1140311461846FFF74BFE03461D
:100F4000002B1AD1FB68181DFB6893F83C307A68B7
:100F50001946FFF7D1FD0346002B0ED0F868FFF7C6
:100F60009BFE01230AE0FB7A1946F868FFF71EFE94
:100F7000034603E000BF00E000BF002318466037CF
:100F8000BD4680BD7456000880B400AF00BFBD46AA
:100F900080BC704780B582B000AF786039607B68F4
:100FA000002B02D03B68002B01D1002305E0054A4D
:100FB00004213868FFF7CCFC034618460837BD46C5
:100FC00080BD00BF8056000880B590B000AF78604B
:100FD00039607B68002B01D1002316E007F10C0378
:100FE0003A683121184600F073F8034683F0010394
:100FF000DBB2002B01D0002307E007F10C031A46F7
:1010000001217868FFF7A4FC034618464037BD4627
:1010100080BD000080B500AF40F2023003F02CF834
:1010200040F2093003F028F8012300220021114882
:1010300002F082FE022002F05FFF0F4802F0A3FDE3
:101040000D4802F0A5FD0C4802F0B2FD0A4802F07E
:10105000A4FD07220021084802F07BFD064802F0AB
:101060004BFD054802F058FD034802F068FD00BF43
:1010700080BD00BF000801400024014080B582B05F
:1010800000AF00233B713B1D1A4601210E4802F0C0
:1010900094FD0D4802F038FD00BF0B4802F082FDC0
:1010A000034683F00103DBB2002BF6D1064802F0C1
:1010B0007DFD03469AB2054B1A80044B1B881846E7
:1010C0000837BD4680BD00BF0024014090000020CD
:1010D00080B586B000AFF860B9607A60FB68002B1D
:1010E00002D0BB68002B01D1002317E0FFF7C6FF39
:1010F0000346FB82FB8A0B4AB968F86803F026FCBA
:1011000038613B69002B05DD3B69BA689A4201D919
:10111000012300E0002303F00103DBB21846183777
:10112000BD4680BD9C56000880B500AF40F202303D
:1011300002F0A2FF022300220221094802F0FCFD76
:10114000042300220221064802F0F6FD0221044891
:1011500002F021FE0421024802F01FFE00BF80BD04
:101160000008014080B500AF40F2033002F084FF78
:1011700040F2813002F080FF012302220221114857
:1011800002F0DAFD104802F089FF23210E4802F038
:101190008AFF40F2E7310C4802F087FF0622042163
:1011A000094802F084FF0421074803F046F80022B2
:1011B0000421054803F066F8034802F06AFF00BF07
:1011C00080BD00BF000C01400004004080B500AFAE
:1011D0004FF4417002F050FF4FF4005300220221FF
:1011E000074802F0A9FD4FF40051054802F0D3FD75
:1011F000FFF79AFFFFF7B6FF00F004F800BF80BDCD
:101200000010014080B500AF084B00221A70084B57
:1012100000221A700221074802F0BDFD0421054892
:1012200002F0BBFD00F076F800BF80BD9200002008
:10123000930000200008014080B500AF0B4B012255
:101240001A700B4B01221A7001F094FA0346094AF6
:1012500013600221084802F0A0FD0421064802F0B4
:101260009AFD00F04BF800BF80BD00BF9200002047
:1012700093000020940000200008014080B582B057
:1012800000AF1A4B1B7883F00103DBB2002B28D18F
:1012900001F070FA7860164B1B687A68D31A7C2BC1
:1012A00020D9134A7B681360124B1B78002B14BFA4
:1012B00001230023DBB283F00103DBB203F001035F
:1012C000DAB20C4B1A700B4B1B78002B04D00421A4
:1012D000094802F060FD05E00421074802F05DFDC9
:1012E00000E000BF0837BD4680BD00BF920000206F
:1012F00094000020930000200008014080B500AF5A
:1013000040F2F3120421024802F0BCFF00BF80BD8E
:101310000004004080B500AF00220421024802F022
:10132000B1FF00BF80BD00BF0004004080B582B0A7
:1013300000AF78607B68002B34D07B681C4918466E
:1013400003F0E6F90346002B2ED17B6808331949D8
:10135000184603F0DDF90346002B05D14FF4005188
:10136000154802F01AFD20E07B680833134918463F
:1013700003F0CEF90346002B05D14FF400510E487F
:1013800002F009FD11E07B6808330D49184603F0AF
:10139000BFF90346002B08D14FF40051064802F074
:1013A00002FD02E000BF00E000BF0837BD4680BD7F
:1013B000A8560008AC56000800100140B0560008BE
:1013C000B456000880B500AF40F2033002F054FE7E
:1013D0004FF4407002F050FE4FF48053022200217F
:1013E000194802F0A9FC4FF48051174802F0D5FCCF
:1013F00015494FF4805002F04FFC02214FF4805009
:1014000002F00AFC4FF4805002F038FC4FF4805098
:1014100002F026FC282002F0E5FF0C4B00221A7097
:101420000B4B00221A700B4B00221A700A4B002241
:101430001A7001F09FF90346084A1360084B002216
:101440001A6000BF80BD00BF000C01409800002062
:10145000990000209A0000209B0000209C000020A2
:10146000A000002080B584B000AF78600023FB733B
:101470000023BB7301F0C8FF214B1B78DBB2002BAC
:1014800007D01F4B00221A700123FB731D4B1B78E2
:10149000BB7301F0E9FFFB7B83F00103DBB2002BA0
:1014A00001D0002327E001F065F9B860164B1B68F6
:1014B000BA68D31A312B01D800231CE0124ABB684A
:1014C0001360124B1B78BA7B9A4201D1002312E0C1
:1014D0000E4ABB7B13700E4ABB7B13700D4B1B680F
:1014E00001330C4A13607B68002B03D0084B1A7839
:1014F0007B681A70012318461037BD4680BD00BFB7
:1015000098000020990000209C0000209B000020F3
:101510009A000020A000002080B500AF4FF480505A
:1015200002F0B2FB0346002B13D04FF4805002F0C0
:10153000A5FB4FF48051084802F032FC0346002B13
:1015400014BF01230023DAB2044B1A70044B0122AA
:101550001A7000BF80BD00BF000C01409900002040
:101560009800002080B483B000AF78607B6803F1FE
:1015700008027B685A607B684FF0FF329A607B6894
:1015800003F108027B68DA607B6803F108027B687C
:101590001A617B6800221A6000BF0C37BD4680BC10
:1015A000704780B483B000AF78607B6800221A6116
:1015B00000BF0C37BD4680BC704780B485B000AF1B
:1015C000786039603B681B68BB60BB68B3F1FF3F64
:1015D00003D17B681B69FB600CE07B680833FB6010
:1015E00002E0FB685B68FB60FB685B681B68BA68CD
:1015F0009A42F6D2FB685A683B685A603B685B685F
:101600003A689A603B68FA689A60FB683A685A6080
:101610003B687A681A617B681B685A1C7B681A6091
:1016200000BF1437BD4680BC704780B485B000AFA2
:1016300078607B681B69FB607B685B687A6892688E
:101640009A607B689B687A6852685A60FB685B683E
:101650007A689A4203D17B689A68FB685A607B6813
:1016600000221A61FB681B685A1EFB681A60FB683F
:101670001B6818461437BD4680BC704780B586B0DD
:1016800000AF7860396001237B617B683B613B6917
:10169000002B0BD14FF0500383F31188BFF36F8FF2
:1016A000BFF34F8FFB6000BF00BFFDE73B69002B1E
:1016B0005DD03B69DB6B002B59D03B691A6C3B69F1
:1016C000DB6B0021A3FB0223002B00D001210B4682
:1016D000002B4CD101F098FE3B691A683B69DB6B2B
:1016E0003969096C01FB03F31A443B699A603B6951
:1016F00000229A633B691A683B695A603B691A6821
:101700003B69DB6B013B3969096C01FB03F31A444C
:101710003B69DA603B69FF2283F844203B69FF2282
:1017200083F845203B68002B14D13B691B69002BD3
:101730001AD03B691033184601F0D0F90346002B4C
:1017400012D0164B4FF080521A60BFF34F8FBFF389
:101750006F8F09E03B6910331846FFF703FF3B69C1
:1017600024331846FFF7FEFE01F07EFE01E0002361
:101770007B617B69002B0BD14FF0500383F3118801
:10178000BFF36F8FBFF34F8FBB6000BF00BFFDE79C
:101790007B6918461837BD4680BD00BF04ED00E0E8
:1017A00080B58AB002AFF860B9601346FB710023C0
:1017B000FB61FB68002B2ED00021BA68FB68A3FBFD
:1017C0000223002B00D001210B46002B23D1FB6804
:1017D000BA6802FB03F313F1490F1CD8FB68BA681F
:1017E00002FB03F3BB61BB694833184601F008FFF5
:1017F000F861FB69002B1DD0FB697B617B69483375
:101800007B61FA79FB69009313467A69B968F868D5
:1018100000F015F80EE0FB69002B0BD14FF05003E0
:1018200083F31188BFF36F8FBFF34F8F3B6100BF0E
:1018300000BFFDE7FB6918462037BD4680BD80B577
:1018400084B000AFF860B9607A60FB70BB68002BB1
:1018500003D1BB69BA691A6002E0BB697A681A6091
:10186000BB69FA68DA63BB69BA681A640121B869AE
:10187000FFF704FF00BF1037BD4680BD80B58EB0B6
:1018800000AFF860B9607A603B6000237B63FB685F
:101890003B633B6B002B0BD14FF0500383F311885C
:1018A000BFF36F8FBFF34F8FBB6200BF00BFFDE779
:1018B000BB68002B03D13B6B1B6C002B01D10123B8
:1018C00000E00023002B0BD14FF0500383F311886D
:1018D000BFF36F8FBFF34F8F7B6200BF00BFFDE789
:1018E0003B68022B03D13B6BDB6B012B01D1012346
:1018F00000E00023002B0BD14FF0500383F311883D
:10190000BFF36F8FBFF34F8F3B6200BF00BFFDE798
:1019100001F0F6FA0346002B02D17B68002B01D1BF
:10192000012300E00023002B0BD14FF0500383F381
:101930001188BFF36F8FBFF34F8FFB6100BF00BFF4
:10194000FDE701F061FD3B6B9A6B3B6BDB6B9A42F1
:1019500002D33B68022B29D13A68B968386B00F092
:1019600027FAF8623B6B5B6A002B10D03B6B243389
:10197000184601F0B3F80346002B13D03F4B4FF04D
:1019800080521A60BFF34F8FBFF36F8F0AE0FB6A7C
:10199000002B07D0394B4FF080521A60BFF34F8FA6
:1019A000BFF36F8F01F060FD012363E07B68002BC4
:1019B00003D101F059FD00235CE07B6B002B06D1C5
:1019C00007F11403184601F061F901237B6301F06C
:1019D0004BFD00F0B9FD01F017FD3B6B93F844306F
:1019E0005BB2B3F1FF3F03D13B6B002283F844208D
:1019F0003B6B93F845305BB2B3F1FF3F03D13B6BD8
:101A0000002283F8452001F02FFD3A1D07F1140351
:101A10001146184601F050F90346002B24D1386BCB
:101A200000F0BEFA0346002B18D03B6B10337A68E7
:101A30001146184601F02CF8386B00F049FA00F016
:101A400091FD0346002B7FF47CAF0C4B4FF080528E
:101A50001A60BFF34F8FBFF36F8F72E7386B00F0E0
:101A600037FA00F07FFD6CE7386B00F031FA00F0D8
:101A700079FD002318463837BD4680BD04ED00E0EF
:101A800080B592B000AFF860B9607A603B60FB68E7
:101A90003B643B6C002B0BD14FF0500383F3118858
:101AA000BFF36F8FBFF34F8FFB6200BF00BFFDE737
:101AB000BB68002B03D13B6C1B6C002B01D10123B5
:101AC00000E00023002B0BD14FF0500383F311886B
:101AD000BFF36F8FBFF34F8FBB6200BF00BFFDE747
:101AE0003B68022B03D13B6CDB6B012B01D1012343
:101AF00000E00023002B0BD14FF0500383F311883B
:101B0000BFF36F8FBFF34F8F7B6200BF00BFFDE756
:101B100001F036FDEFF311824FF0500383F311888B
:101B2000BFF36F8FBFF34F8F3A62FB613B6AFB637A
:101B30003B6C9A6B3B6CDB6B9A4202D33B68022B8B
:101B400047D13B6C93F8453087F83B303B6C9B6B3F
:101B50007B633A68B968386C00F02AF997F93B3032
:101B6000B3F1FF3F12D13B6C5B6A002B2ED03B6C74
:101B70002433184600F0B2FF0346002B26D07B68C2
:101B8000002B23D07B6801221A601FE000F000FECA
:101B9000386397F93B303A6B9A4217D997F93B3043
:101BA0007F2B0BD14FF0500383F31188BFF36F8F5E
:101BB000BFF34F8FBB6100BF00BFFDE797F83B301D
:101BC0000133DBB25AB23B6C83F8452001237B64BE
:101BD00001E000237B64FB6B7B617B6983F31188ED
:101BE00000BF7B6C18464837BD4680BD80B58CB0C1
:101BF00000AFF860B9607A600023FB62FB68BB62EB
:101C0000BB6A002B0BD14FF0500383F31188BFF355
:101C10006F8FBFF34F8F3B6200BF00BFFDE7BB6814
:101C2000002B03D1BB6A1B6C002B01D1012300E008
:101C30000023002B0BD14FF0500383F31188BFF327
:101C40006F8FBFF34F8FFB6100BF00BFFDE701F057
:101C500057F90346002B02D17B68002B01D10123E9
:101C600000E00023002B0BD14FF0500383F31188C9
:101C7000BFF36F8FBFF34F8FBB6100BF00BFFDE7A6
:101C800001F0C2FBBB6A9B6B7B627B6A002B1FD09F
:101C9000B968B86A00F0F6F87B6A5A1EBB6A9A63A4
:101CA000BB6A1B69002B0FD0BB6A1033184600F0CB
:101CB00015FF0346002B07D03C4B4FF080521A60B3
:101CC000BFF34F8FBFF36F8F01F0CEFB012369E0AD
:101CD0007B68002B03D101F0C7FB002362E0FB6AA5
:101CE000002B06D107F11003184600F0CFFF0123A7
:101CF000FB6201F0B9FB00F027FC01F085FBBB6A39
:101D000093F844305BB2B3F1FF3F03D1BB6A0022CA
:101D100083F84420BB6A93F845305BB2B3F1FF3FD0
:101D200003D1BB6A002283F8452001F09DFB3A1DD8
:101D300007F110031146184600F0BEFF0346002BC2
:101D400023D1B86A00F016F90346002B17D0BB6AFE
:101D500024337A681146184600F09AFEB86A00F0FB
:101D6000B7F800F0FFFB0346002B89D10F4B4FF073
:101D700080521A60BFF34F8FBFF36F8F80E7B86A4E
:101D800000F0A6F800F0EEFB7AE7B86A00F0A0F8E1
:101D900000F0E8FBB86A00F0EDF80346002B3FF4D2
:101DA0006FAF002318463037BD4680BD04ED00E01C
:101DB00080B586B000AFF860B9607A6000237B61BF
:101DC000FB689B6B3B61FB681B6C002B0DD1FB68B8
:101DD0001B68002B4DD1FB689B68184601F0AEF8DC
:101DE0007861FB6800229A6043E07B68002B19D180
:101DF000FB685868FB681B6C1A46B96802F096FBD2
:101E0000FB685A68FB681B6C1A44FB685A60FB68E5
:101E10005A68FB689B689A422BD3FB681A68FB6878
:101E20005A6026E0FB68D868FB681B6C1A46B968E4
:101E300002F07CFBFB68DA68FB681B6C5B421A44AF
:101E4000FB68DA60FB68DA68FB681B689A4207D2B5
:101E5000FB689A68FB681B6C5B421A44FB68DA609B
:101E60007B68022B05D13B69002B02D03B69013B0B
:101E70003B613B695A1CFB689A637B6918461837BB
:101E8000BD4680BD80B582B000AF786039607B68A8
:101E90001B6C002B18D07B68DA687B681B6C1A44BB
:101EA0007B68DA607B68DA687B689B689A4203D358
:101EB0007B681A687B68DA607B68D9687B681B6C12
:101EC0001A46386802F032FB00BF0837BD4680BDB5
:101ED00080B584B000AF786001F096FA7B6893F823
:101EE0004530FB7311E07B685B6A002B12D07B6886
:101EF0002433184600F0F2FD0346002B01D000F019
:101F000043FFFB7B013BDBB2FB7397F90F30002BE8
:101F1000E9DC00E000BF7B68FF2283F8452001F088
:101F2000A3FA01F071FA7B6893F84430BB7311E0B7
:101F30007B681B69002B12D07B681033184600F0B9
:101F4000CDFD0346002B01D000F01EFFBB7B013B03
:101F5000DBB2BB7397F90E30002BE9DC00E000BF69
:101F60007B68FF2283F8442001F07EFA00BF10371F
:101F7000BD4680BD80B584B000AF786001F044FA02
:101F80007B689B6B002B02D10123FB6001E00023E7
:101F9000FB6001F069FAFB6818461037BD4680BD4A
:101FA00080B584B000AF786001F02EFA7B689A6B40
:101FB0007B68DB6B9A4202D10123FB6001E00023C6
:101FC000FB6001F051FAFB6818461037BD4680BD32
:101FD00080B58AB004AFF860B9607A603B607B6816
:101FE0009B00184601F00CFB38613B69002B13D0B5
:101FF000542001F005FB78617B69002B08D0542246
:102000000021786902F042FA7B693A691A6305E0B7
:10201000386901F027FC01E000237B617B69002B1C
:102020000DD0002303937B6902937B6A01933B6A83
:1020300000933B687A68B968F86800F028F87B6913
:1020400018461837BD4680BD80B588B002AFF8602D
:10205000B9607A603B607B6A01933B6A00933B689E
:102060007A68B968F868FFF7B3FF38613B69002BFD
:1020700005D0386900F094F801237B6102E04FF04D
:10208000FF337B617B6918461837BD4680BD80B53C
:1020900088B000AFF860B9607A603B603B6B1A6B48
:1020A0007B6803F18043013B9B001344BB61BB6928
:1020B00023F00703BB61BB6903F00703002B0BD0C0
:1020C0004FF0500383F31188BFF36F8FBFF34F8F2F
:1020D0007B6100BF00BFFDE7BB68002B1ED0002363
:1020E000FB6112E0BA68FB69134419783A6BFB692B
:1020F000134434330A461A70BA68FB6913441B78D8
:10210000002B06D0FB690133FB61FB690F2BE9D97A
:1021100000E000BF3B6B002283F84320BB6A052B25
:102120000BD94FF0500383F31188BFF36F8FBFF3C8
:102130004F8F3B6100BF00BFFDE7BB6A052B01D994
:102140000523BB623B6BBA6ADA623B6BBA6A5A64BC
:102150003B6B04331846FFF724FA3B6B18331846E1
:10216000FFF71FFA3B6B3A6B1A61BB6AC3F10602B9
:102170003B6B9A613B6B3A6B5A623A68F968B86993
:1021800001F006F802463B6B1A60FB6A002B02D096
:10219000FB6A3A6B1A6000BF2037BD4680BD000065
:1021A00080B584B000AF786001F02EF93F4B1B681A
:1021B00001333E4A13603E4B1B68002B09D13C4A59
:1021C0007B681360394B1B68012B10D100F000FEB7
:1021D0000DE0384B1B68002B09D1354B1B68DA6AC0
:1021E0007B68DB6A9A4202D8314A7B681360324BC3
:1021F0001B680133304A13607B68DB6A01229A4016
:102200002E4B1B6813432D4A13607B68DA6A2C49F6
:1022100013469B0013449B000B4404331B68FB6074
:102220007B68FA689A60FB689A687B68DA60FB688A
:102230009B687A6804325A607B681A1DFB689A6052
:102240007B68DA6A13469B0013449B001C4A1A44BD
:102250007B685A617B68DA6A194913469B0013440C
:102260009B000B441B687A68D26A591C14481346B9
:102270009B0013449B000344196001F0F5F80D4BDB
:102280001B68002B0ED00A4B1B68DA6A7B68DB6A7E
:102290009A4207D20B4B4FF080521A60BFF34F8F18
:1022A000BFF36F8F00BF1037BD4680BD9001002087
:1022B000A40000209C010020AC0100209801002017
:1022C000A800002004ED00E080B58AB000AF78607F
:1022D000396000237B627B68002B0BD14FF05003E9
:1022E00083F31188BFF36F8FBFF34F8F7B6100BF04
:1022F00000BFFDE73B68002B0BD14FF0500383F389
:102300001188BFF36F8FBFF34F8F3B6100BF00BFDA
:10231000FDE700F019F92A4B1B683B62294B1B684B
:10232000012B0BD04FF0500383F31188BFF36F8F55
:10233000BFF34F8FFB6000BF00BFFDE77B681B68EA
:102340003A681344FB617B681B683A6A9A420BD275
:102350007B681B68FA699A4211D2FA693B6A9A4211
:102360000DD901237B620AE07B681B68FA699A42F7
:1023700003D3FA693B6A9A4201D901237B627B68E5
:10238000FA691A607B6A002B06D0FA693B6AD31A95
:102390000021184600F07AFE00F0E4F8B861BB694D
:1023A000002B07D1084B4FF080521A60BFF34F8FBC
:1023B000BFF36F8F7B6A18462837BD4680BD00BFCC
:1023C00094010020B801002004ED00E080B584B045
:1023D00000AF78600023FB607B68002B18D000F012
:1023E000B3F8134B1B68012B0BD04FF0500383F352
:1023F0001188BFF36F8FBFF34F8FBB6000BF00BF6B
:10240000FDE70021786800F041FE00F0ABF8F860CD
:10241000FB68002B07D1074B4FF080521A60BFF3C7
:102420004F8FBFF36F8F00BF1037BD4680BD00BF19
:10243000B801002004ED00E080B58AB002AF0123AE
:10244000FB6100233B6100237B6111E01C4A7B6937
:10245000134419783A467B6913440A461A703A467F
:102460007B6913441B78002B06D07B6901337B61A9
:102470007B690F2BEADD00E000BF0023BB6115E0A4
:10248000104B3B61BB699B000F4A134439460193D3
:1024900000230093002380223869FFF7D5FDF861FF
:1024A000FB69002B06D0BB690133BB61BB69002B04
:1024B000E6DD00E000BFFB6918462037BD4680BD61
:1024C000C0560008A12D0008B401002080B584B0DA
:1024D00000AFFFF7B1FFF860FB68012B16D14FF09A
:1024E000500383F31188BFF36F8FBFF34F8FBB602F
:1024F00000BF114B4FF0FF321A60104B01221A60DF
:102500000F4B00221A6000F0C1FE0FE0FB68B3F130
:10251000FF3F0BD14FF0500383F31188BFF36F8F50
:10252000BFF34F8F7B6000BF00BFFDE7054B1B680B
:1025300000BF1037BD4680BDB00100209C010020C7
:1025400094010020BC56000880B400AF044B1B6807
:102550000133034A136000BFBD4680BC704700BF13
:10256000B801002080B588B000AF0023FB610023D4
:10257000BB6100F049FF00233B61754B1B68002BDA
:102580000BD14FF0500383F31188BFF36F8FBFF36C
:102590004F8F3B6000BF00BFFDE76D4B1B68013BE9
:1025A0006B4A13606A4B1B68002B40F0CA80694B72
:1025B0001B68002B00F0C5808EE0674BDB68DB6892
:1025C000FB61FB699B6AFB60FB69DB69FA69126A64
:1025D0009A60FB691B6AFA69D2695A60FB685A689B
:1025E000FB6918339A4203D1FB691A6AFB685A6087
:1025F000FB6900229A62FB681B685A1EFB681A601E
:10260000FB695B69BB60FB699B68FA69D2689A6089
:10261000FB69DB68FA6992685A60BB685A68FB69B3
:1026200004339A4203D1FB69DA68BB685A60FB69DC
:1026300000225A61BB681B685A1EBB681A60FB699E
:10264000DB6A01229A40454B1B681343434A1360DF
:10265000FB69DA6A424913469B0013449B000B4412
:1026600004331B687B60FB697A689A607B689A68B0
:10267000FB69DA607B689B68FA6904325A60FB691F
:102680001A1D7B689A60FB69DA6A13469B00134443
:102690009B00334A1A44FB695A61FB69DA6A304984
:1026A00013469B0013449B000B441B68FA69D26AD3
:1026B000591C2B4813469B0013449B00034419608C
:1026C000FB69DA6A274B1B68DB6A9A4204D9264AFF
:1026D0003B69012142F823101F4B1B68002B7FF43C
:1026E0006CAFFB69002B01D000F0F0FB1F4B1B68A7
:1026F0007B617B69002B12D000F054F80346002B5D
:1027000004D0194A3B69012142F823107B69013B3F
:102710007B617B69002BEFD1144B00221A60124AB7
:102720003B6952F82330002B0BD00123BB610D4BCA
:102730001B680F4B4FF080521A60BFF34F8FBFF3EF
:102740006F8F00F091FEBB6918462037BD4680BDF3
:10275000B8010020900100205001002098010020C5
:10276000A8000020A4000020A4010020A001002057
:1027700004ED00E080B483B000AF044B1B687B60C5
:102780007B6818460C37BD4680BC7047940100201A
:1027900080B400AF024B1B681846BD4680BC704732
:1027A0009001002080B58AB000AF00237B627F4B90
:1027B0001B68002B40F0EF807D4B1B6801333B62B0
:1027C0007B4A3B6A13603B6A002B21D1794B1B6823
:1027D0001B68002B0BD04FF0500383F31188BFF31D
:1027E0006F8FBFF34F8F7B6000BF00BFFDE7714B62
:1027F0001B68FB61704B1B686E4A13606E4AFB6975
:1028000013606E4B1B6801336C4A136000F05EFB73
:102810006B4B1B683A6A9A42C0F0A880654B1B68F4
:102820001B68002B04D1664B4FF0FF321A609DE00D
:10283000604B1B68DB68DB68BB61BB695B687B6105
:102840003A6A7B699A4203D25D4A7B6913608DE0E4
:10285000BB695B693B61BB699B68BA69D2689A6076
:10286000BB69DB68BA6992685A603B695A68BB69A0
:1028700004339A4203D1BB69DA683B695A60BB6989
:1028800000225A613B691B685A1E3B691A60BB698A
:102890009B6A002B1ED0BB699B6AFB60BB69DB692E
:1028A000BA69126A9A60BB691B6ABA69D2695A60CE
:1028B000FB685A68BB6918339A4203D1BB691A6A2C
:1028C000FB685A60BB6900229A62FB681B685A1E4B
:1028D000FB681A60BB69DB6A01229A40394B1B68AE
:1028E0001343384A1360BB69DA6A374913469B00C1
:1028F00013449B000B4404331B68BB60BB69BA687C
:102900009A60BB689A68BB69DA60BB689B68BA6901
:1029100004325A60BB691A1DBB689A60BB69DA6AE7
:1029200013469B0013449B00274A1A44BB695A6113
:10293000BB69DA6A244913469B0013449B000B448D
:102940001B68BA69D26A591C1F4813469B0013447E
:102950009B0003441960BB69DA6A1C4B1B68DB6A85
:102960009A427FF65BAF01237B6257E7174B1B68E8
:10297000DA6A154913469B0013449B000B441B68FD
:10298000012B01D901237B62114B1B68002B07D05F
:1029900001237B6204E00F4B1B6801330D4A136077
:1029A0007B6A18462837BD4680BD00BFB8010020AD
:1029B00094010020480100204C010020A8010020C3
:1029C000B001002098010020A8000020A4000020F1
:1029D000A4010020A001002080B487B000AF274BE5
:1029E0001B68002B03D0264B01221A6041E0244BC8
:1029F00000221A60234B1B68FB60FB68B3FA83F369
:102A0000FB72FB7AC3F11F037B611F497A6913468E
:102A10009B0013449B000B441B68002B0BD14FF011
:102A2000500383F31188BFF36F8FBFF34F8F7B6029
:102A300000BF00BFFDE77A6913469B0013449B006B
:102A4000114A13443B613B695B685A683B695A60B1
:102A50003B695A683B6908339A4203D13B69DA689B
:102A60003B695A603B695B68DB68084A1360074B47
:102A70001B6800BF1C37BD4680BC7047B8010020F2
:102A8000A401002098010020A8000020A40000203C
:102A900080B584B000AF786039607B68002B0BD1C3
:102AA0004FF0500383F31188BFF36F8FBFF34F8F45
:102AB000FB6000BF00BFFDE7074B1B6818331946DA
:102AC0007868FEF77AFD0121386800F0DFFA00BF70
:102AD0001037BD4680BD00BFA400002080B48BB07D
:102AE00000AF78607B68DB68DB683B623B6A002B89
:102AF0000BD14FF0500383F31188BFF36F8FBFF3F7
:102B00004F8FFB6000BF00BFFDE73B6A9B6AFB6124
:102B10003B6ADB693A6A126A9A603B6A1B6A3A6AE4
:102B2000D2695A60FB695A683B6A18339A4203D1EA
:102B30003B6A1A6AFB695A603B6A00229A62FB6927
:102B40001B685A1EFB691A604A4B1B68002B60D138
:102B50003B6A5B697B613B6A9B683A6AD2689A60B0
:102B60003B6ADB683A6A92685A607B695A683B6ADA
:102B700004339A4203D13B6ADA687B695A603B6A44
:102B800000225A617B691B685A1E7B691A603B6A86
:102B9000DB6A01229A40384B1B681343364A1360A4
:102BA0003B6ADA6A354913469B0013449B000B4489
:102BB00004331B683B613B6A3A699A603B699A68D7
:102BC0003B6ADA603B699B683A6A04325A603B6A46
:102BD0001A1D3B699A603B6ADA6A13469B001344EC
:102BE0009B00264A1A443B6A5A613B6ADA6A2349C7
:102BF00013469B0013449B000B441B683A6AD26A3D
:102C0000591C1E4813469B0013449B000344196043
:102C10001BE01B4B5B68BB613B6ABA69DA61BB694D
:102C20009A683B6A1A62BB699B683A6A18325A60B2
:102C30003B6A03F11802BB699A603B6A104A9A62C8
:102C40000F4B1B6801330E4A13603B6ADA6A0D4B67
:102C50001B68DB6A9A4205D901237B620A4B012279
:102C60001A6001E000237B627B6A18462C37BD4660
:102C700080BC7047B801002098010020A800002007
:102C800050010020A4000020A401002080B483B0E3
:102C900000AF7860064B1A687B681A60054B1A68AB
:102CA0007B685A6000BF0C37BD4680BC704700BFD0
:102CB000A80100209401002080B588B000AF7860A2
:102CC00039607B68002B0BD14FF0500383F31188E0
:102CD000BFF36F8FBFF34F8F3B6100BF00BFFDE7B6
:102CE0003B68002B0BD14FF0500383F31188BFF3E7
:102CF0006F8FBFF34F8FFB6000BF00BFFDE700F099
:102D000083FB1F4B1B68BB617B685B68BA69D31A86
:102D10007B613B681B68B3F1FF3F02D10023FB617D
:102D200026E07B681A68174B1B689A420AD07B68BA
:102D30005B68BA699A4205D30123FB613B680022B4
:102D40001A6015E03B681B687A699A420BD23B68AF
:102D50001A687B69D21A3B681A607868FFF796FF99
:102D60000023FB6104E03B6800221A600123FB6141
:102D700000F07AFBFB6918462037BD4680BD00BFD6
:102D800094010020A801002080B400AF034B012271
:102D90001A6000BFBD4680BC704700BFA401002080
:102DA00080B582B000AF786000F052F8064B1B6827
:102DB000012BF9D9054B4FF080521A60BFF34F8FAA
:102DC000BFF36F8FF0E700BFA800002004ED00E024
:102DD00080B582B000AF00237B600CE07A681346B8
:102DE0009B0013449B00124A13441846FEF7BAFB9B
:102DF0007B6801337B607B68052BEFD90D48FEF7BC
:102E0000B1FB0D48FEF7AEFB0C48FEF7ABFB0C48E0
:102E1000FEF7A8FB0B48FEF7A5FB0B4B054A1A6013
:102E20000A4B054A1A6000BF0837BD4680BD00BF87
:102E3000A8000020200100203401002050010020C3
:102E4000640100207C010020480100204C0100208A
:102E500080B582B000AF19E000F0D6FA104BDB6805
:102E6000DB687B607B6804331846FEF7DEFB0D4BA6
:102E70001B68013B0B4A13600B4B1B68013B0A4A62
:102E8000136000F0F1FA786800F010F8064B1B6848
:102E9000002BE1D100BF00BF0837BD4680BD00BF99
:102EA00064010020900100207801002080B582B0EC
:102EB00000AF78607B681B6B184600F0D3FC786825
:102EC00000F0D0FC00BF0837BD4680BD80B400AF25
:102ED000094B1B681B68002B04D1084B4FF0FF32D5
:102EE0001A6005E0044B1B68DB681B68034A13602B
:102EF00000BFBD4680BC704748010020B0010020E3
:102F000080B483B000AF0B4B1B68002B02D10123B0
:102F10007B6008E0084B1B68002B02D102237B601A
:102F200001E000237B607B6818460C37BD4680BCFF
:102F3000704700BF9C010020B801002080B588B018
:102F400000AF78607B68BB610023FB617B68002B6E
:102F500000F090804A4B1B68BA699A420BD04FF040
:102F6000500383F31188BFF36F8FBFF34F8F3B6123
:102F700000BF00BFFDE7BB699B6C002B0BD14FF07E
:102F8000500383F31188BFF36F8FBFF34F8FFB6044
:102F900000BF00BFFDE7BB699B6C5A1EBB699A640A
:102FA000BB69DA6ABB695B6C9A4263D0BB699B6C94
:102FB000002B5FD1BB6904331846FEF736FB03468E
:102FC000002B0AD1BB69DB6A012202FA03F3DA4360
:102FD0002C4B1B6813402B4A1360BB695A6CBB69AE
:102FE000DA62BB69DB6AC3F10602BB699A61BB693D
:102FF000DB6A01229A40234B1B681343214A13606A
:10300000BB69DA6A204913469B0013449B000B44BA
:1030100004331B687B61BB697A699A607B699A6833
:10302000BB69DA607B699B68BA6904325A60BB6924
:103030001A1D7B699A60BB69DA6A13469B001344C8
:103040009B00114A1A44BB695A61BB69DA6A0E498E
:1030500013469B0013449B000B441B68BA69D26A59
:10306000591C094813469B0013449B0003441960F4
:103070000123FB61FB6918462037BD4680BD00BFB8
:10308000A400002098010020A800002080B588B08E
:1030900000AF78603960374B1B68FB61364B1B68AB
:1030A000BB61364B1B687B61354B1B68043318468C
:1030B000FEF7BBFA0346002B0BD1314B1B68DB6AD2
:1030C000012202FA03F3DA432E4B1B6813402D4A08
:1030D00013607B68B3F1FF3F24D13B68002B21D004
:1030E000294B5B683B61264B1B683A699A60244B0D
:1030F0001B683A699268DA60214B1A683B699B68E1
:1031000004325A601E4B1B681A1D3B699A601C4BA7
:103110001B681D4A5A611C4B1B6801331A4A136015
:1031200000BF22E0FA697B681344FB60144B1B6804
:10313000FA685A60FA68FB699A4207D2104B1B681A
:10314000043319467869FEF738FA0EE00C4B1B6819
:1031500004331946B869FEF730FA0C4B1B68FA685D
:103160009A4202D2094AFB68136000BF2037BD466D
:1031700080BD00BF94010020480100204C010020C8
:10318000A4000020980100207C010020B001002054
:1031900080B485B000AFF860B9607A60FB68043B2A
:1031A000FB60FB684FF080721A60FB68043BFB60B9
:1031B000BB6823F00102FB681A60FB68043BFB60FC
:1031C000084AFB681A60FB68143BFB607A68FB687E
:1031D0001A60FB68203BFB60FB6818461437BD464D
:1031E00080BC7047E931000880B485B000AF00238F
:1031F0007B60124B1B68B3F1FF3F0BD04FF05003C5
:1032000083F31188BFF36F8FBFF34F8FFB6000BF55
:1032100000BFFDE74FF0500383F31188BFF36F8FBA
:10322000BFF34F8FBB6000BF00BF7B68002BFCD09B
:1032300000BF00BF1437BD4680BC704700000020AF
:10324000074B19680868B0E8F00F80F30988BFF3EE
:103250006F8F4FF0000080F311884EF00D0E704715
:10326000A400002000BF00BF06480068006880F38B
:10327000088862B661B6BFF34F8FBFF36F8F00DF70
:1032800000BF000008ED00E000BF00BF80B58AB0BD
:1032900000AF544B1B687B627B6A2C331B68524A1D
:1032A00093420BD04FF0500383F31188BFF36F8F1D
:1032B000BFF34F8FBB6100BF00BFFDE77B6A3833B0
:1032C0001B684A4A93420BD04FF0500383F3118896
:1032D000BFF36F8FBFF34F8FFB6100BF00BFFDE7F0
:1032E0000023BB60424B3B623B6A1B78DBB2FB7343
:1032F0003B6AFF221A703B6A1B78DBB2FB71FB79D9
:10330000DBB203F05003DAB23A4B1A70394B1B7838
:10331000002B0BD14FF0500383F31188BFF36F8F55
:10332000BFF34F8F7B6100BF00BFFDE7FB79DBB2CE
:10333000DB4303F05003002B13D04FF0500383F313
:103340001188BFF36F8FBFF34F8F3B6100BF00BF8A
:10335000FDE7BB680133BB60FB79DBB25B00DBB22E
:10336000FB71FB79DBB203F08003802BF1D0BB68EB
:10337000082B03D1204B00221A6004E0BB68C3F184
:1033800007031D4A13601C4B1B681B021A4A13607B
:10339000194B1B6803F4E063174A1360FB7BDAB236
:1033A0003B6A1A70154B1B68144A43F47F03136081
:1033B000124B1B68114A43F07F431360104B0022ED
:1033C0001A6000F0C3F80F4B00221A60FFF74CFFA1
:1033D000FFF702FBFFF708FF002318462837BD461A
:1033E00080BD00BF08ED00E041320008C134000894
:1033F00000E400E0BC010020C001002020ED00E05E
:103400001CED00E00000002080B483B000AF4FF05E
:10341000500383F31188BFF36F8FBFF34F8F7B602F
:1034200000BF0F4B1B6801330D4A13600C4B1B6828
:10343000012B10D10B4B1B68DBB2002B0BD04FF0D4
:10344000500383F31188BFF36F8FBFF34F8F3B603F
:1034500000BF00BFFDE700BF0C37BD4680BC704712
:103460000000002004ED00E080B483B000AF124BF8
:103470001B68002B0BD14FF0500383F31188BFF36F
:103480006F8FBFF34F8F7B6000BF00BFFDE70A4B1C
:103490001B68013B084A1360074B1B68002B05D1D2
:1034A00000233B603B6883F3118800BF00BF0C37EB
:1034B000BD4680BC704700BF000000200000000037
:1034C000EFF30980BFF36F8F0D4B1A6820E9F00FFF
:1034D00010602DE908404FF0500080F31188FFF78D
:1034E0007BFA4FF0000080F31188BDE808401968AE
:1034F0000868B0E8F00F80F30988BFF36F8F70475A
:10350000A400002000BF00BF80B582B000AF4FF024
:10351000500383F31188BFF36F8FBFF34F8F7B602E
:1035200000BFFFF73FF90346002B03D0064B4FF0D7
:1035300080521A6000233B603B6883F3118800BF10
:1035400000BF0837BD4680BD04ED00E080B400AF89
:10355000074B00221A60074B00221A60064B074AED
:103560001A60034B07221A6000BFBD4680BC70473B
:1035700010E000E018E000E014E000E03F19010076
:1035800080B485B000AFEFF30583FB60FB680F2BC1
:1035900015D9174AFB6813441B78FB72154B1B782F
:1035A000FA7A9A420BD24FF0500383F31188BFF39B
:1035B0006F8FBFF34F8F7B6000BF00BFFDE70E4BE7
:1035C0001B6803F4E0620D4B1B689A420BD94FF065
:1035D000500383F31188BFF36F8FBFF34F8F3B60AE
:1035E00000BF00BFFDE700BF1437BD4680BC704779
:1035F000F0E300E0BC0100200CED00E0C001002081
:1036000080B58EB000AF78600023FB627B68002B32
:1036100022D00823DB437A689A421BD808227B68B1
:1036200013447B607B6803F00703002B14D07B6896
:1036300003F00703C3F10803BB62BB6ADB437A688C
:103640009A4204D87A68BB6A13447B6004E0002382
:103650007B6001E000237B60FEF776FF7A4B1B68FE
:10366000002B01D100F074F97B68002BC0F2D380ED
:103670007B68002B00F0CF80744B1B687A689A42FD
:1036800000F2C980724B3B63714B1B687B637B6BA1
:10369000704A934205D37B6B6F4A934201D8012352
:1036A00000E00023002B29D14FF0500383F3118851
:1036B000BFF36F8FBFF34F8F3B6200BF00BFFDE7CB
:1036C0007B6B3B637B6B1B687B637B6B614A9342C9
:1036D00005D37B6B604A934201D8012300E00023AD
:1036E000002B0BD14FF0500383F31188BFF36F8F82
:1036F000BFF34F8FFB6100BF00BFFDE77B6B5B68D3
:103700007A689A4203D97B6B1B68002BD8D14E4B49
:103710001B687A6B9A427ED03B6B1B68082213446D
:10372000FB62FB6A4B4A934205D3FB6A4A4A9342C7
:1037300001D8012300E00023002B0BD14FF05003F0
:1037400083F31188BFF36F8FBFF34F8FBB6100BF4F
:1037500000BFFDE77B6B1A683B6B1A607B6B5B6895
:103760007A689A420BD94FF0500383F31188BFF364
:103770006F8FBFF34F8F7B6100BF00BFFDE77B6B97
:103780005A687B68D21A08235B009A4224D97A6B64
:103790007B6813447B627B6A03F00703002B0BD02A
:1037A0004FF0500383F31188BFF36F8FBFF34F8F38
:1037B0003B6100BF00BFFDE77B6B5A687B68D21A94
:1037C0007B6A5A607B6B7A685A603B6B1A687B6ACB
:1037D0001A603B6B7A6A1A601C4B1A687B6B5B68D9
:1037E000D31A1A4A1360194B1A681C4B1B689A4269
:1037F00003D2164B1B68194A13607B6B5B6843F05E
:1038000000427B6B5A607B6B00221A60144B1B6872
:103810000133134A1360FEF7A5FEFB6A03F00703AA
:10382000002B0BD04FF0500383F31188BFF36F8F41
:10383000BFF34F8FFB6000BF00BFFDE7FB6A184678
:103840003837BD4680BD00BFCC290020D0290020DC
:10385000C4290020C4010020C3290020D42900204D
:10386000D829002080B588B000AF78607B68FB6104
:103870007B68002B60D008235B42FA691344FB612C
:10388000FB69BB61BB692E4A934205D3BB692D4AD4
:10389000934201D8012300E00023002B0BD14FF00D
:1038A000500383F31188BFF36F8FBFF34F8F7B619A
:1038B00000BF00BFFDE7BB695B68002B0BDB4FF06F
:1038C000500383F31188BFF36F8FBFF34F8F3B61BA
:1038D00000BF00BFFDE7BB691B68002B0BD04FF09A
:1038E000500383F31188BFF36F8FBFF34F8FFB60DB
:1038F00000BF00BFFDE7BB695B68002B1CDABB693A
:103900001B68002B18D1BB695B6823F00042BB69C0
:103910005A60FEF719FEBB695A680B4B1B681344CB
:10392000094A1360B86900F06DF8084B1B68013351
:10393000064A1360FEF716FE00BF2037BD4680BD65
:10394000C4010020C3290020D0290020DC29002048
:1039500080B485B000AF4FF42053BB60244BFB60B4
:10396000FB6803F00703002B0CD0FB680733FB60F8
:10397000FB6823F00703FB60BA68FB68D31A1C4A94
:103980001344BB60FB681B4A13601A4B00225A6049
:10399000FA68BB6813447B6008227B689B1A7B60D3
:1039A0007B6823F007037B607B68134A1360124B2C
:1039B0001B6800225A60104B1B6800221A60FB68CB
:1039C0003B603B687A68D21A3B685A600A4B1A68B7
:1039D0003B681A603B685B68084A13603B685B6839
:1039E000074A136000BF1437BD4680BC704700BF54
:1039F000C4010020C4290020CC290020D4290020A3
:103A0000D029002080B487B000AF7860364B7B614E
:103A100002E07B691B687B617B691B687A689A425C
:103A2000F7D87B69304A934218D07B692F4A93427A
:103A300005D37B692E4A934201D8012300E000237D
:103A4000002B0BD14FF0500383F31188BFF36F8F1E
:103A5000BFF34F8FFB6000BF00BFFDE77B693B6199
:103A60007B695B683A6913447A689A4208D17B693A
:103A70005A687B685B681A447B695A607B697B6023
:103A80007B683B617B685B683A691A447B691B68A9
:103A90009A4218D17B691A68164B1B689A420DD05E
:103AA0007B685A687B691B685B681A447B685A604C
:103AB0007B691B681A687B681A6008E00D4B1A68FE
:103AC0007B681A6003E07B691A687B681A607A6910
:103AD0007B689A4202D07B697A681A6000BF1C3703
:103AE000BD4680BC704700BFC4290020C40100202F
:103AF000C3290020CC2900208368DB075EBF8368D0
:103B000043F00103836070478368DB0742BF83682B
:103B100043F0010383607047836800F1080243F0BB
:103B20000803836013681B07FCD47047836843F065
:103B30000403836070478068C0F38000704708B555
:103B40000246FFF7F3FF1046FFF7F5FF0028FAD112
:103B500008BD092910B50AD80724036901EB410102
:103B60008C4023EA04038A401A43026110BD0724F3
:103B70000A39C36801EB41018C4023EA04038A40FF
:103B80001A43C260F2E7836823F001038360704741
:103B9000436823F4807343607047836823F40063B1
:103BA000836070470068C0F340007047C06C704786
:103BB000836823F00203836070471029F0B50FD8A3
:103BC00000276FF03B030124BC463E46E5B2A94204
:103BD00007D2013946EA0151C162C0F830C04763DB
:103BE000F0BD062C09D8157803F13C0E05FA0EF548
:103BF0002F43013401320533E8E7073D052D1578E1
:103C000006D803F11E0E05FA0EF54CEA050CF0E796
:103C10009D402E43EDE7000001290FD0022918D066
:103C200059B90E4BD3F808240243C3F80824D3F83B
:103C30000C2422EA0002C3F80C247047074BD3F887
:103C4000082422EA0002C3F80824D3F80C24024313
:103C5000F1E7024BD3F808240243F4E700000140E7
:103C6000054BD3F800240243C3F80024D3F80424FE
:103C70000243C3F80424704700000140014BC3F81D
:103C80001404704700000140024BD3F8143418406C
:103C9000704700BF000001402DE9F04F844600222C
:103CA0004FF0010E0F271E4EDFF87880DFF8789076
:103CB000DFF878A00EFA02F313EA0C0F19D01C4BB0
:103CC000994225D01AD8414524D0494524D0A1EBAA
:103CD0000A004342434106EB9204A40002F00305AC
:103CE0002068AD0007FA05FB20EA0B00AB40184343
:103CF00020600132102ADDD1BDE8F08F0D4B9942D2
:103D00000CD003F5806399420CBF06230023E2E741
:103D10000423E0E70223DEE70323DCE70523DAE7F9
:103D2000024000100010014000140140000C01404E
:103D300000180140001C01402DE9F0414FF00F0C2C
:103D400000250768466843FA05F4E4071CD5072DEB
:103D500094BFBE46B646ACB24FEA84048ABF203C4C
:103D6000A4B2A4B20CFA04F82EEA080804F1020E78
:103D700002FA0EFE01FA04F44EEA040444EA0804CE
:103D8000072D94BF274626460135102DDBD107604D
:103D90004660BDE8F0810161704709040161704728
:103DA000806808407047C36801EA030221EA030102
:103DB00041EA024101617047062824D8DFE800F09B
:103DC00004090E13181D2000104B1868C0F3406042
:103DD00070470E4B1868C0F3C06070470B4B1868F3
:103DE000C0F340707047094B1868C0F340407047FB
:103DF000064B1868C0F340007047044B186AF9E797
:103E0000024B586AF6E70020704700BF00100240DE
:103E1000024608B51046FFF7CFFF0028FAD008BDCC
:103E200006282AD8DFE800F0040A0F14191E24001F
:103E3000124A136843F08073136070470F4A136887
:103E400043F08063F8E70D4A136843F08053F3E7CB
:103E50000A4A136843F48033EEE7084A136843F0D4
:103E60000103E9E7054A136A43F00103136270474F
:103E7000024A536A43F00103536270470010024044
:103E8000034A536823F0030303435360704700BFA2
:103E900000100240034A536823F4701343EA80433E
:103EA0005360704700100240034AD36A23F47063E2
:103EB00043EA0023D362704700100240034AD36AEA
:103EC00023F4704343EA0033D3627047001002408A
:103ED000034A536823F4803343EA00435360704736
:103EE00000100240034A536823F4003343EA40437E
:103EF0005360704700100240034A536823F4404364
:103F000043EA80335360704700100240034A53680D
:103F100023F4605343EAC02353607047001002400B
:103F2000034A536823F4E06343EA00235360704775
:103F300000100240034A536823F0F00343EA0013E1
:103F40005360704700100240044B5A6818B142F4A5
:103F500080025A60704722F48002FAE700100240A3
:103F6000034AD36A23F00F030343D362704700BFB1
:103F700000100240034AD36A23F0F00343EA00131F
:103F8000D362704700100240044BDA6A18B142F461
:103F90008032DA62704722F48032FAE70010024081
:103FA00010B504464378012B0CBF03200420FFF713
:103FB00037FFFFF72DFFA078FFF7BCFFE078FFF792
:103FC000AFFF2079FFF7A2FF6079FFF795FF207B15
:103FD000FFF7BAFFA07900F021FA2078FFF75AFF27
:103FE0006078FFF775FFE07901282DD9FFF7B8FF5A
:103FF000207A08B1FFF7C8FF607A08B1FFF7BAFF6F
:10400000A07A30B1FFF750FF0120FFF709FFFFF75B
:10401000FFFEE07A30B1FFF751FF0220FFF700FF0B
:10402000FFF7F6FE0020FFF7FBFEFFF7F1FE022090
:10403000FFF726FF2269064B1A606269054B1A607A
:10404000A269054B1A6010BDFFF74CFFD0E700BF17
:10405000040000200C00002008000020034B9842C0
:104060000CBF034B034B1868704700BF003801407A
:10407000080000200C0000200122430903F18043C6
:1040800003F50433196800F01F0082400A431A60E8
:104090007047036843F0010303607047036823F02F
:1040A00001030360704781627047C162704706294F
:1040B0007AD8DFE801F00479337963799200836973
:1040C00023F00303836183698361836923F07003B1
:1040D0008361072A68D8DFE802F03304090D11155F
:1040E000191D836943F0100383617047836943F0AE
:1040F0002003F9E7836943F03003F5E7836943F070
:104100004003F1E7836943F05003EDE7836943F02F
:104110006003E9E7836943F07003E5E7836923F40B
:104120004073836183698361836923F4E04383611E
:10413000072A39D8DFE802F004060A0E12161A1E02
:104140008369D1E7836943F48053CDE7836943F4FE
:104150000053C9E7836943F44053C5E7836943F4D7
:104160008043C1E7836943F4A043BDE7836943F417
:10417000C043B9E7836943F4E043B5E7C36923F07B
:104180000303C361C369C361C36923F07003C361DF
:10419000072A09D8DFE802F03304090D1115191DAB
:1041A000C36943F01003C3617047C36943F0200340
:1041B000F9E7C36943F03003F5E7C36943F040030F
:1041C000F1E7C36943F05003EDE7C36943F06003CF
:1041D000E9E7C36943F07003E5E7C36923F440737B
:1041E000C361C369C361C36923F4E043C361072AA0
:1041F000DAD8DFE802F004060A0E12161A1EC369A6
:10420000D1E7C36943F48053CDE7C36943F4005356
:10421000C9E7C36943F44053C5E7C36943F4804326
:10422000C1E7C36943F4A043BDE7C36943F4C04396
:10423000B9E7C36943F4E043B5E7062909D8DFE8E5
:1042400001F0041509190D1D1100036A43F0010363
:1042500003627047036A43F01003F9E7036A43F40B
:104260008073F5E7036A43F48053F1E7036A43F090
:104270000403EDE7036A43F04003E9E7036A43F40C
:104280008063E5E706290CD8DFE801F0040B060B94
:10429000080B0A004263704782637047C26370472D
:1042A0000264704738B50C460546FFF7D7FE00EBB1
:1042B0005403B3FBF4F3AB6038BDC36808290CBFEB
:1042C00023F4805343F48053C3607047036923F49D
:1042D00040530B4303617047C36823F4C0630B432F
:1042E000C3607047C36823F00C030B43C36070477F
:1042F000436923F440730B4343617047C36843F43D
:104300000053C360704738B504460D4600F013F8FB
:1043100029462046BDE8384000F005B8C36843F0A0
:104320002003C3607047C1F30801416070474068D3
:10433000C0F30800704703681B06FCD5704703688C
:104340000B4214BF012000207047FEE770470000B9
:1043500038B51A4A1A4B1B498B421AD300211A4A04
:1043600093421BD34FF0E022D2F8143D174C43F494
:104370000073174DC2F8143DAC4212D3154C164DC4
:10438000AC4212D3FBF7E4FE144C154DAC4210D3F3
:1043900038BD52F8040B43F8040BDDE743F8041B67
:1043A000DEE754F8043B9847E6E754F8043B9847A7
:1043B000E6E754F8043B9847E8E700BF8D5700084C
:1043C0000000002060000020F0290020F0290020DB
:1043D000F0290020F0290020F0290020F0290020F9
:1043E000F0290020012243099B0003F1604300F003
:1043F0001F0003F5614382401A607047432893BF52
:1044000000F16040044B00F00F0000F564408CBFE9
:10441000C1540170704700BF14ED00E0034A1368F7
:1044200023F0070303431360704700BF00200240DE
:1044300020F0030110F00300C0F1000051F8043B2C
:1044400000F1040C4FEACC0C6FF000021CBF22FA02
:104450000CF213434FF0010C4CEA0C2C4CEA0C4CC0
:10446000A3EB0C0222EA030212EACC1204BF51F8B9
:10447000043B0430F4D0C2F1000102EA0102B2FAB6
:1044800082F2C2F11F0200EBD200704770B58607BE
:1044900047D0541E002A3ED00346CAB201E0013C78
:1044A00039D303F8012B9D07F9D1032C2CD9CDB2B8
:1044B00005EB05250F2C1A4605EB054534D9A4F16B
:1044C000100C2CF00F0603F1100EB6444FEA1C1C22
:1044D000C2E90055C2E9025510327245F8D10CF11B
:1044E000010214F00C0F03EB021204F00F0C13D0B6
:1044F000ACF1040323F003030433134442F8045BD8
:104500009342FBD10CF003042CB1C9B21C4403F854
:10451000011BA342FBD170BD64461346002CF4D1AD
:10452000F9E703461446C0E7A446E1E7844641EABA
:10453000000313F0030349D1403A23D30B6803600F
:104540004B6843608B688360CB68C3600B69036111
:104550004B6943618B698361CB69C3610B6A0362F9
:104560004B6A43628B6A8362CB6AC3620B6B0363E1
:104570004B6B43638B6B8363CB6BC36340304031C6
:10458000403ADBD230320BD30B6803604B68436098
:104590008B688360CB68C36010301031103AF3D25F
:1045A0000C3205D351F8043B40F8043B043AF9D2ED
:1045B000043208D0D2071CBF11F8013B00F8013BC0
:1045C00001D30B8803806046704700BF082A13D3CD
:1045D0008B07B1D010F00303AED0C3F10403D21A9D
:1045E000DB071CBF11F8013B00F8013BA4D331F8F5
:1045F000023B20F8023B9FE7043AD9D3013A11F875
:10460000013B00F8013BF9D20B7803704B78437003
:104610008B7883706046704740EA01039B0710B5B2
:1046200024D1032A22D98E468446DEF80040714602
:10463000A4F1013323EA040313F0803F0EF1040ECA
:1046400015D1043A032A4CF8044BEED8714601F117
:10465000FF3E52B163461EF8011F541E03F8011BB2
:1046600041B122469C46002AF4D110BD844601F196
:10467000FF3EEEE79444002CF7D003F8011B63459E
:10468000FBD110BD002A3ED0844630B50446084315
:1046900080070B462ED1032A07D82BE0043A25D0F9
:1046A0001EF0803F22D1032A22D919462068A44651
:1046B000A0F1013323EA000E0B4653F8045B0434E7
:1046C000A842EBD09CF800000C7884421DD1E6464D
:1046D00068B11EF8010F11F8014FA2EB0E03A042C2
:1046E00003F1FF3311D11CEB0303F1D1002030BDE6
:1046F000A44619469CF800000C78A04205D1012A76
:10470000F4D0E646E4E710467047001B30BD00BF1A
:1047100080EA010C1CF0030F37D110F0030C20F0DD
:10472000030021F0030150F8042B08BF51F8043BAB
:104730000ED08CF0030C6FF07F434FEACC0C23FAC1
:104740000CFC51F8043B42EA0C0243EA0C0300BFA4
:10475000A2F1013C9A4201BF2CEA020C1CF0803FFE
:1047600050F8042B51F8043BF2D04FEA02604FEAB4
:104770001222012828BFB0EB036F08BF1B0AF4D038
:1047800003F0FF03000EC01A704710F0030F0AD0A9
:1047900010F8012B11F8013B012A28BF9A42F4D0EE
:1047A000A2EB030070474DF8045D50F8042B01F0B4
:1047B000030521F0030151F8043B022D26D04DD80A
:1047C00022F07F45B5EB132FA2F1013C2CEA020C3D
:1047D0000DD11CF0803C08BF51F8043B0AD185EA9A
:1047E0000205B5EB036F0CD150F8042BE8E74FEA54
:1047F00013235BE03CF07F4C54D10B784FEA1265F9
:1048000054E04FEA126503F0FF034FE04FEA024520
:10481000A2F1013C4FEA15452CEA020CB5EB134F0F
:1048200018D11CF0803C08BF51F8043B07D185EA41
:104830000205B5EB034F09D150F8042BE6E75FEA18
:104840000C4C2FD10B884FEA12452FE04FEA03435F
:104850004FEA12454FEA134328E000BF02F0FF057C
:10486000B5EB136FA2F1013C2CEA020C0DD11CF048
:10487000803C08BF51F8043B0AD185EA0205B5EB3C
:10488000032F0AD150F8042BE8E74FEA13630DE039
:1048900012F0FF0F06D051F8043B4FEA122523F027
:1048A0007F4303E04FF0000020BC704705F0FF029B
:1048B00003F0FF00012828BF904204BF2D0A1B0A05
:1048C000F4D0A2EB000020BC704700BF08B410B5C4
:1048D000002A04469DB034DB4FF4027C4FF0000305
:1048E000ADF814C01B934FF6FF7C0291069120ABEC
:1048F00015D0013A0492079202A91F9A0193ADF8CC
:1049000016C000F051F9421C01DA8B23236000220B
:10491000029B1A701DB0BDE8104001B070470492B0
:10492000079202A91F9A0193ADF816C000F03CF956
:10493000431C01DA8B2323601DB0BDE8104001B099
:1049400070478B234FF0FF302360F5E70CB410B5B0
:10495000204B00291C689CB036DB4FF000034FF45D
:1049600002721B934FF6FF7C02900690ADF8142064
:104970001FAB16D001391E9A04910791204602A957
:104980000193ADF816C000F00FF9421C01DA8B2339
:1049900023600022029B1A701CB0BDE8104002B0D8
:1049A00070470491079120461E9A02A90193ADF821
:1049B00016C000F0F9F8431C01DA8B2323601CB009
:1049C000BDE8104002B070478B234FF0FF302360EA
:1049D000F5E700BF100000202DE9F0471D468F6865
:1049E0000C46AF4216460B6836D8B1F90CC01CF421
:1049F000906F0ED13D46184631462A4600F0F0FA37
:104A00000020A368DF1B2368A7602B442360BDE858
:104A1000F0874A69096902EB42025F1A02EBD2721F
:104A20006B1C52103B44934292BF914699461A46E2
:104A30001CF4806F804611D0114600F0F3F98246D5
:104A400000B33A462169FFF771FDA38923F490630F
:104A500043F08003A38105E02F46CCE700F03EFB46
:104A6000824658B10AEB0703A9EB0707A760C4F811
:104A700010A02F46C4F814902360BCE7404621697B
:104A800000F050FA0C22A3894FF0FF3043F04003AE
:104A9000C8F80020A381BAE72DE9F04F936883B0EE
:104AA000924617680190002B76D04FF0000B0C4611
:104AB0005D468B680A6848E0B4F90CC01CF4906F3E
:104AC0002FD0D4E90403A2EB000803EB430202EB6E
:104AD000D27208F1010152102944914292BF9146CD
:104AE00089460A461CF4806F39D01146019800F0BF
:104AF00099F9064600283DD042462169FFF716FD88
:104B0000A28922F4906242F08002A28106EB0800A2
:104B1000A9EB08022661A8462E46A2602060C4F8D0
:104B200014903246594600F05BFADAF80810A36890
:104B30002268A3EB08033244491BA3602260CAF831
:104B4000081049B3D7E900B5083798461046002D3C
:104B5000F8D09D421E46AFD2A8462E46E1E7014658
:104B6000019800F0BBFA06460028CFD101982169D0
:104B700000F0D8F90C21A389019D43F0400329607E
:104B80000022A3814FF0FF300023CAF80820CAF8A2
:104B9000043003B0BDE8F08F00200023CAF80430D1
:104BA00003B0BDE8F08F00BF2DE9F04F1C468B89A4
:104BB00089461D06824693469DB003D50B69002B9E
:104BC00000F0EE80002343F2200209939BF80030AE
:104BD00001277C4E0394ADF82920002B71D05D464F
:104BE00003E015F8013F002B73D0252BF9D1B5EB6D
:104BF0000B0471D12A78002A63D000234FF0FF32D2
:104C00000135CDE90523049307938DF853301A93AA
:104C100006E02546049B801B07FA00F0034304933B
:104C20002C46052214F8011B304600F061FCA34617
:104C30000028EED1049BD90644BF20228DF85320D2
:104C40001A0748BF2B22297848BF8DF853202A29FC
:104C50004FD1039A11680432002903927BDB07913C
:104C600069782E295BD0584C0322204600F040FC86
:104C700038B14022049B001B824013430BF1010B0F
:104C800004931BF8011B062250488DF8281000F0F1
:104C90002FFC002865D04E4B002B55D003A9009166
:104CA0004A4650464B4B04A9AFF300808046B8F10A
:104CB000FF3F06D0099B434409939BF80030002B2B
:104CC0008DD1B9F80C305B0679D409981DB0BDE8D8
:104CD000F08FB5EB0B04F4D023465A4649465046B4
:104CE000FFF77AFE0130ECD0099B2A782344099320
:104CF00081E7A1F13002092A88BFAB46B1D8079BF2
:104D000000E00134217803EB830302EB4303A1F1BC
:104D10003002092AF5D92E29A3460793A3D19BF87F
:104D200001102A2927D1039B0BF102001A680433D2
:104D3000002A0393B8BF4FF0FF339BF8021005928F
:104D40008346B8BF05938EE7039B073323F0070321
:104D500008330393AEE7494243F0020307910493FB
:104D60007EE703A900914A4650461A4B04A900F079
:104D700079FA80469BE70023A1F13002092A0BF162
:104D8000010B05933FF66FAF1BF8011F03EB830385
:104D900002EB4303A1F13002092AF5D9059362E73A
:104DA000402100F03FF8C9F80000C9F8100018B120
:104DB0004023C9F8143005E70C23CAF800304FF03F
:104DC000FF3083E7545700085C570008605700081D
:104DD00000000000D949000870B5114E054633683F
:104DE0000C46BBB12146284600F0CEFB431C0146D1
:104DF0000CD0C41C24F00304A04205D02846611A3C
:104E000000F0C2FB013001D0204670BD4FF0FF34EE
:104E1000204670BD194600F0B7FB3060E2E700BFE6
:104E2000E02900202DE9F843CD1C25F003050835C5
:104E30000C2D38BF0C25002D064618DBA94216D8CC
:104E4000DFF8DC8000F050FBD8F80420A2B1144653
:104E500003E0636822467BB11C4623685B1BF8D4E1
:104E60000B2B1FD89442636854D053600CE00C2382
:104E700033600020BDE8F88329463046FFF7ACFFD9
:104E8000431C044619D00560304600F02FFB04F1A6
:104E90000B00231D20F00700C21A1CBF1B1AA350D1
:104EA000BDE8F88361199442256014BF5160C8F8C9
:104EB0000410635163684B60E6E7D8F804701FB3D1
:104EC0003C467F68002FFBD123683946304604EB0F
:104ED000030900F059FB814516D123683046ED1ACD
:104EE0002946FFF779FF01300ED02368D8F8042057
:104EF0002B442360536883B1A34203D01A465B68F6
:104F00009C42FBD10023B0E70C233046336000F015
:104F1000EDFAAEE7C8F80430B6E7C8F80470B3E7B6
:104F2000E0290020002950D038B551F8043C0C1F6E
:104F3000002BB8BFE418054600F0D6FA274A1368DC
:104F40002BB1A3420CD92168601883422CD028468B
:104F500063601460BDE8384000F0C8BAA3420FD8BF
:104F60001A465B68002BF9D111685018844217D09B
:104F70002CD3636054602846BDE8384000F0B6BAD0
:104F800011685018A04214D020D8216860188342BC
:104F9000EFD118685B680844C4E900035460EAE78D
:104FA00023680B441360E6E718685B6808442060D8
:104FB000CDE720680144501883421160DBD1D3E96A
:104FC00000040144C2E90014D5E770470C232846C9
:104FD0002B60BDE8384000F089BA00BFE42900200A
:104FE00088420ED98B1883420BD900EB020C002AA1
:104FF0006DD0624613F801CD994202F801CDF9D186
:1050000070470F2A0FD8034602F1FF3C002A5ED0FA
:105010000CF1010C013B8C4411F8012B614503F8A4
:10502000012FF9D1704740EA01039B0750D1A2F14B
:10503000100370B501F1200C23F00F0501F1100EE3
:1050400000F11004AC441B095EF8105C0EF1100E68
:1050500044F8105C5EF81C5C103444F81C5C5EF88C
:10506000185C44F8185C5EF8145CE64544F8145C7F
:10507000EAD1013312F00C0F01EB031102F00F041F
:1050800000EB031328D08E46043C24F003064FEABD
:10509000940C1E441C1F5EF8045B44F8045FB44289
:1050A000F9D10CF1010402F0030203EB840301EBDC
:1050B000840102F1FF3C4AB10CF1010C013B8C442C
:1050C00011F8012B614503F8012FF9D170BD70472C
:1050D000034602F1FF3C9BE72246EAE72DE9F04157
:1050E000144641B30AB306460D4600F05FFA844207
:1050F000074602D8B4EB500F13D821463046FFF7CD
:1051000091FE804650B1BC422246294628BF3A460D
:10511000FFF70CFA29463046FFF704FF4046BDE88A
:10512000F081A8464046BDE8F081A046FFF7FAFEB0
:105130004046BDE8F0811146BDE8F041FFF772BE80
:105140002DE9F84F92461F460A698B680C469A4231
:10515000B8BF1A46CAF8002091F843300646DDF879
:10516000289013B10132CAF80020226891065FD559
:10517000DAF800300233CAF80030226812F0060F65
:1051800011461DD1E1689942D8BF114618DD4FF094
:10519000000804F1190B05E0E568DAF80030ED1AB3
:1051A00045450CDD01235A4639463046C847013093
:1051B00008F10108F0D14FF0FF30BDE8F88F216809
:1051C00094F84330003B18BF01238A060AD53021EA
:1051D000E21882F8431094F845105A1C2244023316
:1051E00082F843103946304604F14302C847013083
:1051F000E1D0D4E902202368DAF8005003F0060376
:10520000042B21691BD08A4220DD4FF00008521A7E
:10521000904400251A3401E0454517DA012322465F
:1052200039463046C847013005F10105F4D1C2E7DF
:1052300012F0060F0DD0003B18BF0123D2E7401B30
:105240008A4220EAE078E2DC0028E2DC0020BDE8C7
:10525000F88FE168DAF800309942D8BF114696DC41
:10526000AEE700BF2DE9F04717460A7E84B00C4632
:10527000064698460C9D01F1430C002A35D0A2F158
:105280005803D9B2202969D8202B67D8DFE813F05A
:10529000E60066006600660066006600660066005E
:1052A000660066006600AC0070006600660066007E
:1052B00066007000660066006600660021008300DC
:1052C000C60066006600B6006600830066006600E1
:1052D000EC002B682268181D6169286010061B68A5
:1052E00002D4520600F1E08019600023E1462361F8
:1052F0003B4621463046CDF8008003AAFFF720FF49
:10530000013020D04A46394630462369C047013033
:1053100019D02368E0689B07DDF80C9018D5484544
:1053200016DD002504F1190A04E0E068A0EB09038A
:10533000AB420DDD0123524639463046C0470130AD
:1053400005F10105F1D14FF0FF3004B0BDE8F08761
:105350004845B8BF484604B0BDE8F087012084F84E
:10536000422004F142090023206184F84330BFE762
:105370002A682368111D1806296002D4590600F115
:1053800095801068014600286268C0F293804FF053
:105390000A0E534815E020682B6810F0800F53F870
:1053A000041B02D1400648BF89B26F2A14BF4FF0D8
:1053B0000A0E4FF0080E4A482B600023626884F8FA
:1053C0004330002AA26051DB236823F004032360EA
:1053D00000294BD1002A7BD1E146BEF1080F56D0FF
:1053E000ACEB0903236183E72A68012011680432CA
:1053F0002A6004F1420984F84210B4E72B680021C6
:105400001A1D2A60D3F800906268484600F070F8D0
:10541000002863D0A0EB09006060A4E7236843F094
:105420002003236078222F4884F845202A6813F04F
:10543000800F52F8041B03D113F0400F18BF89B23C
:105440002A60DA0744BF43F02003236019B92368B8
:1054500023F0200323604FF0100EAEE758232048BE
:1054600084F845302368E1E72368DBE77546E146C9
:10547000B1FBF5F30A4605FB131A194610F80A307A
:10548000AA4209F8013DF3D2BEF1080FA8D1236862
:10549000DD07A5D5626823699A42A1DC302309F1B2
:1054A000FF3989F800309BE719801EE7B2F9001038
:1054B000084668E72D20002AA26084F8430002DB3A
:1054C00023F0040323600A250548AE464942CEE78F
:1054D000037804F1420984F842307EE7606842E7CD
:1054E000685700087C570008704700BF704700BF2E
:1054F0005FFA81FC810744D00346511E22B909E0BE
:105500009A0709D0013905D318460278013362455C
:10551000F6D1704700207047184603290CD800299F
:10552000F8D00346014401E08B42F3D0184613F84B
:10553000012B6245F8D1704710B50CEB0C240246E4
:1055400004EB044402E00439032915D9104652F84B
:10555000043B6340A3F1013E2EEA030313F0803FB6
:10556000F1D00346014401E08B4208D0184613F8FD
:10557000012B6245F8D110BD10460029F1D1002061
:1055800010BD1146C9E700BF002238B5064D0446DC
:1055900008462A6000F012F8431C00D038BD2B6882
:1055A000002BFBD0236038BDE829002051F8043CD3
:1055B000181F002BBCBF0B58C0187047044A054980
:1055C0001368002B08BF0B4618441060184670473C
:1055D000EC290020F02900206573746F7000000032
:1055E000626F756E64730000655F73746F700000A6
:1055F000655F73746F705F72656C00004F4B0000E5
:10560000756172745F727800706172736572000008
:1056100076617269616E74310000000074656C65BA
:105620006D657472790000006163747561746F72E6
:1056300073000000756172745F747800434D44001C
:1056400044415400455654005354530041434B00C9
:1056500045525200494E560025733A25730000000A
:10566000253032583A2573004025733A2530325898
:105670000A00000025733A25733A257300000000E4
:105680006F6B000070623D256C752C706D3D256C54
:10569000752C70653D256C75000000006164633DEC
:1056A00025303475000000006C6564006F6E0000EA
:1056B0006F666600746F67676C6500000500000028
:1056C00049444C45000000000401000400020200AF
:1056D000000000000000000000A24A040051250262
:1056E00000A24A04070100040002020100000000B9
:1056F0000000000000A24A040051250200A24A0452
:10570000070100040002020401040600000000007A
:1057100000A24A040051250200A24A04010100002F
:1057200000000000000000000000000000366E01D4
:1057300000366E0100366E0107010004000302000E
:10574000000000000000000000A24A0400512502F1
:1057500000A24A04232D302B20000000686C4C006E
:105760006566674546470000303132333435363799
:10577000383941424344454600000000303132335D
:0D5780003435363738396162636465660080
:10578D00AAAAAAAA00127A0000127A0000127A00C0
:10579D001400002000000000000000006800000060
:1057AD00D00000000000000000000000000000001C
:1057BD0000000000000000000000000000000000DC
:1057CD0000000000000000000000000000000000CC
:1057DD0000000000000000000000000000000000BC
:04000005080043515B
:00000001FF
